:100000000C9462000C948A000C948A000C948A0070
:100010000C948A000C948A000C948A000C948A0038
:100020000C948A000C948A000C948A000C948A0028
:100030000C948A000C948A000C948A000C948A0018
:100040000C94AD050C948A000C941D060C94F705D5
:100050000C948A000C948A000C948A000C948A00F8
:100060000C944F060C948A00000000002300260028
:10007000290000000000240027002A0000000000E2
:10008000250028002B0004040404040404040202D4
:100090000202020203030303030301020408102007
:1000A0004080010204081020010204081020000012
:1000B0000008000201000003040700000000000027
:1000C0000000B30711241FBECFEFD8E0DEBFCDBFC5
:1000D00012E0A0E0B1E0E8E5FAE102C005900D927F
:1000E000A63EB107D9F724E0A6EEB2E001C01D920A
:1000F000A436B207E1F710E0C2E6D0E004C02197D1
:10010000FE010E94FF0BC136D107C9F70E94F50717
:100110000C942A0D0C94000090E0FC01E255FF4F76
:100120002491FC01E656FF4F3491FC01EA57FF4F42
:10013000E491EE23C9F0222339F0233001F1A8F431
:10014000213019F1223029F1F0E0EE0FFF1FE458C1
:10015000FF4FA591B4918FB7F894EC91611126C02F
:1001600030953E233C938FBF08952730A9F0283067
:10017000C9F0243049F7809180008F7D03C08091C1
:1001800080008F7780938000DFCF84B58F7784BD28
:10019000DBCF84B58F7DFBCF8091B0008F778093CC
:1001A000B000D2CF8091B0008F7DF9CF3E2BDACF57
:1001B000CF93DF9390E0FC01E656FF4F24918A57DE
:1001C0009F4FFC0184918823D1F090E0880F991F04
:1001D000FC01EE58FF4FA591B491FC01E458FF4F8C
:1001E000C591D49161110EC09FB7F8948C91E22F04
:1001F000E0958E238C932881E223E8839FBFDF91D3
:10020000CF9108958FB7F894EC91E22BEC938FBFC8
:10021000F6CF3FB7F8948091A9039091AA03A091DB
:10022000AB03B091AC0326B5A89B05C02F3F19F0D6
:100230000196A11DB11D3FBFBA2FA92F982F882766
:10024000BC01CD01620F711D811D911D42E0660F41
:10025000771F881F991F4A95D1F708958F929F9213
:10026000AF92BF92CF92DF92EF92FF924B015C016F
:100270000E9409016B017C010E9409016C197D0932
:100280008E099F09683E734081059105A8F321E01E
:10029000821A9108A108B10888EEC80E83E0D81E22
:1002A000E11CF11C81149104A104B10429F7FF9011
:1002B000EF90DF90CF90BF90AF909F908F90089578
:1002C00008950895AF92BF92CF92DF92EF92FF927E
:1002D0000F931F93CF93DF936C017B018B01040F6E
:1002E000151FEB015E01AE18BF08C017D10759F00A
:1002F0006991D601ED91FC910190F081E02DC6014C
:100300000995892B79F7C501DF91CF911F910F9145
:10031000FF90EF90DF90CF90BF90AF900895FC01D9
:10032000538D448D252F30E0842F90E0821B930B5A
:10033000541710F0CF96089501970895FC01918D00
:10034000828D981761F0A28DAE0FBF2FB11D5D9603
:100350008C91928D9F5F9F73928F90E008958FEFA5
:100360009FEF0895FC01918D828D981731F0828D59
:10037000E80FF11D858D90E008958FEF9FEF0895B0
:10038000FC01918D228D892F90E0805C9F4F821B14
:1003900091098F73992708958DEA93E00E94C00117
:1003A00021E0892B09F420E0822F089580E090E07D
:1003B000892B29F00E94CC0181110C940000089532
:1003C000FC01A48DA80FB92FB11DA35ABF4F2C91CA
:1003D000848D90E001968F739927848FA689B789C1
:1003E0002C93A089B1898C91837080648C93938DB8
:1003F000848D981306C00288F389E02D80818F7D5B
:1004000080830895EF92FF920F931F93CF93DF9312
:10041000EC0181E0888F9B8D8C8D98131AC0E88940
:10042000F989808185FF15C09FB7F894EE89FF890F
:100430006083E889F98980818370806480839FBFAD
:1004400081E090E0DF91CF911F910F91FF90EF90AD
:100450000895F62E0B8D10E00F5F1F4F0F731127BD
:10046000E02E8C8D8E110CC00FB607FCFACFE889F8
:10047000F989808185FFF5CFCE010E94E001F1CF9F
:10048000EB8DEC0FFD2FF11DE35AFF4FF0829FB76C
:10049000F8940B8FEA89FB8980818062CFCFCF935C
:1004A000DF93EC01888D8823B9F0AA89BB89E8899C
:1004B000F9898C9185FD03C0808186FD0DC00FB642
:1004C00007FCF7CF8C9185FFF2CF808185FFEDCFC0
:1004D000CE010E94E001E9CFDF91CF9108952091F4
:1004E0002703260F3327331F21323105ECF42091E7
:1004F0007003FC0190E080E0243069F082E0089510
:10050000A09127032191AC01495F5C4FA40FB52F47
:10051000B11D2C930196861798F380912703680FDD
:100520006093270380E0089581E00895109270039E
:1005300081E080936F0310924A0361E082E10E94A0
:100540008C0061E083E10E948C00E9EBF0E08081A7
:100550008E7F808380818D7F808388E48093B80044
:1005600085E48093BC000895CF93DF9391E090934E
:1005700006038823B9F0C091B800D091BA008091E9
:10058000BC008A7B8093BC0060E082E10E948C000A
:1005900060E083E10E948C000E949602D093BA0032
:1005A000C093B800DF91CF910895CF92DF92EF9280
:1005B000FF920F931F93CF93DF93EC018B818823DE
:1005C00009F47AC0C88181E080937603C0939703D1
:1005D00010929D0310929C030E9409016B017C0103
:1005E0008091700381118EC082E08093700381E05E
:1005F00080936F038FEF80936E0310926D031092C0
:100600006C0310924B0380914B03CC0FC82BC0930B
:100610004B0380914A03813009F0A5C010924A0330
:100620000E9409016B017C0180914B038093BB0008
:100630008091720390917303A0917403B09175033C
:10064000892B8A2B8B2BA1F00E9409010091720348
:100650001091730320917403309175036C197D0917
:100660008E099F09061717072807390708F46BC07A
:100670008091BC0083FDD8CF85EC8093BC000E94A4
:1006800009016B017C0180917003823009F46DC017
:1006900080916E0390E08F3F09F45AC080916E0301
:1006A00092E0803209F454C080916E0394E080336C
:1006B00009F04EC093E04CC010929F0310929E032D
:1006C00010929D0310929C030E94960280E691E096
:1006D00090939B0380939A0381E691E09093990312
:1006E0008093980381E08B83CE010E94D502811113
:1006F00069CFDF91CF911F910F91FF90EF90DF9025
:10070000CF9008958091720390917303A091740328
:10071000B0917503892B8A2B8B2B09F461CF0E9432
:1007200009010091720310917303209174033091B9
:1007300075036C197D098E099F090617170728078D
:10074000390708F04DCF809171030E94B40295E003
:1007500010929D0310929C031092760381E09923DE
:1007600041F280E0C6CF85EE88CF809172039091F0
:100770007303A0917403B0917503892B8A2B8B2B83
:1007800009F481CF0E940901009172031091730353
:1007900020917403309175036C197D098E099F09AE
:1007A000061717072807390708F06DCFCCCF089533
:1007B000E0919F0380919E03E81730F4F0E0EA5146
:1007C000FD4F808190E008958FEF9FEF0895909105
:1007D0009F0380919E032FEF3FEF981748F4E92F76
:1007E000F0E0EA51FD4F208130E09F5F90939F033E
:1007F000C901089580919E0390919F03891B990BD5
:100800000895CF92DF92EF92FF920F931F93CF93B1
:10081000DF937C01CB018A0120917603222389F0AA
:10082000EB016B01C40ED51ECC15DD0569F0699195
:10083000D701ED91FC910190F081E02DC701099560
:10084000F3CF642F0E946F02C801DF91CF911F91F7
:100850000F91FF90EF90DF90CF900895CF93DF93AB
:100860001F92CDB7DEB76983209176032223F9F07A
:1008700020919C03203258F021E030E0FC013383CA
:10088000228390E080E00F90DF91CF9108958091D6
:100890009D03E82FF0E0E958FC4F998190838F5F2A
:1008A00080939D0380939C0381E090E0ECCF61E016
:1008B000CE0101960E946F02F7CF90E080E008958C
:1008C00061E082E00E948C0060E083E00E948C0086
:1008D00060E084E00E948C0061E085E00C948C0074
:1008E000FC0101900020E9F73197AF01481B590B3B
:1008F000BC018DEA93E00C9462018F929F92AF92BB
:10090000BF920F931F93CF93DF93CDB7DEB7A1971D
:100910000FB6F894DEBF0FBECDBF19A2423008F467
:100920004AE08E010F5D1F4F842E912CB12CA12C1B
:10093000A50194010E949D0AE62FB901CA01EA307F
:10094000F4F4E05DD801EE938D01232B242B252BAD
:1009500079F790E080E0109719F0CD010E947004C3
:10096000A1960FB6F894DEBF0FBECDBFDF91CF9139
:100970001F910F91BF90AF909F908F900895E95C69
:10098000E1CFCF92DF92EF92FF92CF93DF936B0193
:100990007C016DE28DEA93E00E940202EC01662781
:1009A0007727CB016C197D098E099F094AE00E94C7
:1009B0007D048C0F9D1FDF91CF91FF90EF90DF9012
:1009C000CF900895CF93DF930E947004EC018FE2E3
:1009D00091E00E9470048C0F9D1FDF91CF910895CC
:1009E00082E391E00E94E20460E082E00E948C00D9
:1009F00060E083E00E948C0060E084E00E948C0054
:100A000060E085E00C948C00883E23E09207C4F4FB
:100A100061E082E00E948C0060E083E00E948C0034
:100A200061E084E00E948C0060E085E00E948C0020
:100A30001092000185E491E00E94E20481E00895B3
:100A4000803D27E09207ACF460E082E00E948C00D9
:100A500061E083E00E948C0060E084E00E948C00F2
:100A600061E085E00E948C001092000184E591E035
:100A7000E3CF883B2BE09207ACF460E082E00E9479
:100A80008C0061E083E00E948C0061E084E00E94C1
:100A90008C0060E085E00E948C001092000184E6EA
:100AA00091E0CACF803A2FE092073CF40E946004A4
:100AB0001092000181E791E0BFCF883823E19207CF
:100AC0003CF40E946004109200018FE791E0B4CFE3
:100AD0008037974144F40E94F00481E08093000144
:100AE00081E991E0A9CF80E0089585ED8093BC0075
:100AF0008091720390917303A0917403B091750378
:100B00000796A11DB11D23E0B695A79597958795EA
:100B10002A95D1F72091BC0024FD03C010927003E8
:100B20000895409172035091730360917403709122
:100B30007503452B462B472B69F30097A105B1059B
:100B400041F02AE22A95F1F700C00197A109B10905
:100B5000E1CF809171030C94B4021F920F920FB6F3
:100B60000F9211242F933F938F939F93AF93BF9333
:100B70008091A5039091A603A091A703B091A8032B
:100B80003091A40323E0230F2D3758F50196A11DC2
:100B9000B11D2093A4038093A5039093A603A09373
:100BA000A703B093A8038091A9039091AA03A091F1
:100BB000AB03B091AC030196A11DB11D8093A903B5
:100BC0009093AA03A093AB03B093AC03BF91AF91F2
:100BD0009F918F913F912F910F900FBE0F901F907B
:100BE000189526E8230F0296A11DB11DD2CF1F92A2
:100BF0000F920FB60F9211242F933F934F935F9351
:100C00006F937F938F939F93AF93BF93EF93FF93D4
:100C10008DEA93E00E94E001FF91EF91BF91AF91C7
:100C20009F918F917F916F915F914F913F912F9104
:100C30000F900FBE0F901F9018951F920F920FB636
:100C40000F9211242F938F939F93EF93FF93E09133
:100C5000BD03F091BE038081E091C303F091C40312
:100C600082FD1BC090818091C6038F5F8F7320919E
:100C7000C703821741F0E091C603F0E0E355FC4F53
:100C8000958F8093C603FF91EF919F918F912F9144
:100C90000F900FBE0F901F9018958081F4CF1F9278
:100CA0000F920FB60F9211242F933F934F935F93A0
:100CB0006F937F938F939F93AF93BF93EF93FF9324
:100CC0008091B900887F803609F44AC0F0F58832F7
:100CD00009F4A7C018F5803109F49BC0B8F4882343
:100CE00009F4F9C0883009F494C0FF91EF91BF91E5
:100CF000AF919F918F917F916F915F914F913F91B4
:100D00002F910F900FBE0F901F901895883109F406
:100D100088C0803251F780936E0314C0803409F488
:100D20009DC040F48033B9F38833F9F680936E03A5
:100D300085ECB0C0803509F485C0883509F496C0CB
:100D4000883499F60E947505D0CF883909F48CC093
:100D500038F5883729F050F4883611F0803729F6B5
:100D600083E0809370031092490357C0883809F4D8
:100D70007BC0803919F0803809F0B7CF80914903E2
:100D8000803208F071C0E091490381E08E0F8093BA
:100D900049038091BB00F0E0E75DFC4F80833DC0DC
:100DA000803B39F0E0F4803A09F479C0883A09F0E0
:100DB0009CCF84E080937003109228031092270345
:100DC000E0919A03F0919B0309958091270381118B
:100DD0000FC081E0809327031092070309C0803C75
:100DE00009F4A6CF883C09F4A3CF883B09F07DCF56
:100DF000E091280381E08E0F80932803F0E0E95F03
:100E0000FC4F80818093BB00909128038091270341
:100E100029C080914B038093BB0085EC8093BC007C
:100E200064CF90916D0380916C03981758F5E09111
:100E30006D0381E08E0F80936D03F0E0E45BFC4F67
:100E40008081E9CFE0916D0381E08E0F80936D0387
:100E50008091BB00F0E0E45BFC4F808390916D03D8
:100E600080916C039817C8F285E8D8CFE0916D03A4
:100E700081E08E0F80936D038091BB00F0E0E45B16
:100E8000FC4F808380916F0381115CCF81E0809360
:100E90004A0384EA8093BC001092700326CF85EC4D
:100EA0008093BC001092700380914903803230F42B
:100EB000E0914903F0E0E75DFC4F10826091490347
:100EC00070E0E0919803F091990389E293E009952D
:100ED000109249030ACF10926E0334CFCF92DF9263
:100EE000EF92FF920F931F93E82FF92F05C0015047
:100EF00011092109310961F1908196239417B9F301
:100F000005C0015011092109310911F19081962381
:100F10009413F7CFC12CD12CE12CF12C0AC08FEF08
:100F2000C81AD80AE80AF80A0C151D052E053F054F
:100F300079F080818623841791F36C2D7D2D8E2D81
:100F40009F2D1F910F91FF90EF90DF90CF9008950C
:100F500060E070E080E090E01F910F91FF90EF90D3
:100F6000DF90CF900895EDEAF3E01382128288EECD
:100F700093E0A0E0B0E084839583A683B7832FE05D
:100F800031E03183208325EC30E03587248724EC61
:100F900030E03787268720EC30E0318B208B21EC46
:100FA00030E0338B228B22EC30E0358B248B26EC27
:100FB00030E0378B268B118E128E138E148EEAE45E
:100FC000F4E01382128284839583A683B78381E23F
:100FD00091E091838083E6E5F4E01282148213822B
:100FE00080E890E0968385830895789484B5826044
:100FF00084BD84B5816084BD85B5826085BD85B5BD
:10100000816085BD80916E00816080936E0010923A
:1010100081008091810082608093810080918100B5
:101020008160809381008091800081608093800046
:101030008091B10084608093B1008091B0008160A4
:101040008093B00080917A00846080937A008091D0
:101050007A00826080937A0080917A008160809328
:101060007A0080917A00806880937A001092C100A3
:10107000E091BD03F091BE0382E08083E091B9036B
:10108000F091BA031082E091BB03F091BC038FECA6
:1010900080831092C503E091C103F091C20386E002
:1010A0008083E091BF03F091C003808180618083E1
:1010B000E091BF03F091C003808188608083E0915C
:1010C000BF03F091C003808180688083E091BF03FB
:1010D000F091C00380818F7D808386E090E00E9444
:1010E000050CEC0188E488838AE494E09A83898380
:1010F0001B8280E290E09D838C83D0935704C09341
:10110000560410929F0310929E0310929D0310921A
:101110009C030E94960280E691E090939B0380934B
:101120009A0381E691E0909399038093980381E07C
:101130008B83CE010E94D50281EA91E00E94E204F5
:1011400061E082E00E94D80061E083E00E94D80064
:1011500061E084E00E94D80061E085E00E94D80050
:1011600061E089E00E94D80060E08AE00E94D80037
:101170000E94F00448E5442E4BE1542E612C712C62
:1011800053E2252E312CC0E0D0E02FB7F8948091A7
:10119000A5039091A603A091A703B091A8032FBF28
:1011A0004091A0035091A1036091A2037091A30309
:1011B000841B950BA60BB70B803D9740A105B1058D
:1011C000B8F082EC91E00E94E2042FB7F89480918D
:1011D000A5039091A603A091A703B091A8032FBFE8
:1011E0008093A0039093A103A093A203B093A303C1
:1011F0000E94130AA30192010E946B0A4B015C0139
:1012000087EE91E00E947004B7FE5BC0C501B40197
:101210000E94C1048FE291E00E94700460E089E0C6
:101220000E948C0083E090E00197F1F761E089E093
:101230000E948C00C1010197F1F760E089E00E94F3
:101240008C00E4EAF0E06491E0E9F0E08491E82FBA
:10125000F0E0EE0FFF1FE859FF4F8591949100E5F4
:1012600013EC20E030E0462F0E946E0761157105F7
:101270008105910551F06F5F7F4F8F4F9F4F9F709A
:10128000611571058105910511F583EF91E00E94CB
:10129000E20483E192E00E94E20480910001811166
:1012A0006EC0C4010E940405811104C086EA92E068
:1012B0000E94E20464E670E080E090E00E942E016B
:1012C00053C04AE0C501B4010E947D04A3CF9595A7
:1012D0008795779567950E94060B28E23EE74CE0DC
:1012E0005DE30E946A0B0E94CE0A6B017C0185E4DB
:1012F00092E00E947004B601C701F7FE04C060E0EE
:1013000070E080E090E04AE00E947D048FE291E08E
:101310000E947004F4E1CF16D104E104F1040CF052
:10132000BCCF80E592E00E94E2040E94F00411E04C
:101330001093000185E692E00E94E20464EF71E000
:1013400080E090E00E942E010E94600468EE73E04D
:1013500080E090E00E942E010E94F00410930001B2
:1013600089E892E00E94E204209709F40ECF0E94DF
:10137000CC01882309F409CF0E94000006CF87EC36
:1013800092E00E94E204C4010E94040593CF8F9270
:101390009F92AF92BF92CF92DF92EF92FF92CF9344
:1013A000DF93EC01688179818A819B8161157105E8
:1013B0008105910521F464E279ED8BE597E02DE15B
:1013C00033EF41E050E00E946B0A49015A019B0152
:1013D000AC01A7EAB1E40E948A0A6B017C01ACEE81
:1013E000B4EFA50194010E94980AC60ED71EE81E0C
:1013F000F91EF7FE06C081E0C81AD108E10880E8AE
:10140000F80AC882D982EA82FB82C701B6019F77B7
:10141000DF91CF91FF90EF90DF90CF90BF90AF9092
:101420009F908F9008958F929F92AF92BF92CF928C
:10143000DF92EF92FF926091010170910201809121
:10144000030190910401611571058105910521F455
:1014500064E279ED8BE597E02DE133EF41E050E078
:101460000E946B0A49015A019B01AC01A7EAB1E451
:101470000E948A0A6B017C01ACEEB4EFA5019401D5
:101480000E94980AC60ED71EE81EF91EF7FE06C077
:1014900081E0C81AD108E10880E8F80AC092010189
:1014A000D0920201E0920301F0920401C701B6015B
:1014B0009F77FF90EF90DF90CF90BF90AF909F907D
:1014C0008F9008956093010170930201809303014E
:1014D000909304010895052E97FB1EF400940E943A
:1014E000820A57FD07D00E949D0A07FC03D04EF4E4
:1014F0000C94820A50954095309521953F4F4F4F5F
:101500005F4F089590958095709561957F4F8F4FAF
:101510009F4F08950E94BF0AA59F900DB49F900D04
:10152000A49F800D911D11240895B7FF0C948A0A81
:101530000E948A0A821B930B0895A1E21A2EAA1B0D
:10154000BB1BFD010DC0AA1FBB1FEE1FFF1FA21773
:10155000B307E407F50720F0A21BB30BE40BF50B70
:10156000661F771F881F991F1A9469F760957095F9
:10157000809590959B01AC01BD01CF010895A29F7C
:10158000B001B39FC001A39F700D811D1124911D57
:10159000B29F700D811D1124911D08950E94D50ADE
:1015A0006894B1110C94640B08950E94490B88F063
:1015B0009F5798F0B92F9927B751B0F0E1F0660F17
:1015C000771F881F991F1AF0BA95C9F714C0B13058
:1015D00091F00E94630BB1E008950C94630B672FA8
:1015E000782F8827B85F39F0B93FCCF38695779587
:1015F0006795B395D9F73EF4909580957095619570
:101600007F4F8F4F9F4F0895E89409C097FB3EF49A
:1016100090958095709561957F4F8F4F9F4F99233F
:10162000A9F0F92F96E9BB279395F69587957795BD
:101630006795B795F111F8CFFAF4BB0F11F460FF7D
:101640001BC06F5F7F4F8F4F9F4F16C0882311F0D5
:1016500096E911C0772321F09EE8872F762F05C0E9
:10166000662371F096E8862F70E060E02AF09A9584
:10167000660F771F881FDAF7880F9695879597F979
:10168000089557FD9058440F551F59F05F3F71F072
:101690004795880F97FB991F61F09F3F79F08795D9
:1016A0000895121613061406551FF2CF4695F1DF62
:1016B00008C0161617061806991FF1CF86957105F2
:1016C000610508940895E894BB2766277727CB0126
:1016D00097F908950E947D0B0C94EE0B0E94E00B8D
:1016E00038F00E94E70B20F0952311F00C94D70BF3
:1016F0000C94DD0B11240C94640B0E94410B70F3CD
:10170000959FC1F3950F50E0551F629FF001729FA6
:10171000BB27F00DB11D639FAA27F00DB11DAA1FB5
:10172000649F6627B00DA11D661F829F2227B00D02
:10173000A11D621F739FB00DA11D621F839FA00D8D
:10174000611D221F749F3327A00D611D231F849FDD
:10175000600D211D822F762F6A2F11249F57504034
:101760009AF0F1F088234AF0EE0FFF1FBB1F661FAF
:10177000771F881F91505040A9F79E3F510580F078
:101780000C94D70B0C94640B5F3FE4F3983ED4F3B6
:10179000869577956795B795F795E7959F5FC1F71C
:1017A000FE2B880F911D9695879597F9089597F9C7
:1017B0009F6780E870E060E008959FEF80EC0895F7
:1017C00000240A9416161706180609060895002420
:1017D0000A9412161306140605060895092E03949A
:1017E000000C11F4882352F0BB0F40F4BF2B11F40E
:1017F00060FF04C06F5F7F4F8F4F9F4F0895EE0FC4
:10180000FF1F0590F491E02D09940F931F93CF9340
:10181000DF938230910510F482E090E0E091620461
:10182000F091630430E020E0B0E0A0E0309799F45C
:101830002115310509F44AC0281B390B2430310524
:10184000D8F58A819B816115710589F1FB0193832C
:101850008283FE0111C040815181028113814817AA
:101860005907E0F04817590799F4109761F012965C
:101870000C93129713961C933296CF01DF91CF9160
:101880001F910F9108950093620410936304F4CFA5
:101890002115310551F04217530738F0A901DB013A
:1018A0009A01BD01DF01F801C1CFEF01F9CF90939B
:1018B000630480936204CDCFFE01E20FF31F819396
:1018C00091932250310939832883D7CF2091600426
:1018D00030916104232B41F42091070130910801DC
:1018E000309361042093600420910501309106013A
:1018F0002115310541F42DB73EB7409109015091B2
:101900000A01241B350BE0916004F0916104E21799
:10191000F307A0F42E1B3F0B2817390778F0AC0112
:101920004E5F5F4F2417350748F04E0F5F1F5093EF
:10193000610440936004819391939FCFF0E0E0E0D5
:101940009CCFCF93DF930097E9F0FC01329713828D
:101950001282A0916204B0916304ED0130E020E0B6
:101960001097A1F420813181820F931F2091600490
:10197000309161042817390709F061C0F0936104C0
:10198000E0936004DF91CF910895EA01CE17DF075D
:10199000E8F54A815B819E0141155105B1F7E901E6
:1019A000FB83EA8349915991C40FD51FEC17FD07BA
:1019B00061F4808191810296840F951FE9019983DA
:1019C0008883828193819B838A83F0E0E0E0129692
:1019D0008D919C9113970097B9F52D913C9111979A
:1019E000CD010296820F931F209160043091610413
:1019F0002817390739F6309751F510926304109281
:101A00006204B0936104A0936004BCCFD383C2830B
:101A100040815181840F951FC817D90761F44E5F2B
:101A20005F4F88819981480F591F518340838A8174
:101A30009B81938382832115310509F0B0CFF09308
:101A40006304E09362049ECFFD01DC01C0CF1382EA
:081A50001282D7CFF894FFCFFA
:101A58000101000000000064048000000000000292
:101A68000262018F014F02C0019E01B20100000015
:101A7800002E0401045D04D703FA03E703D8030D1D
:101A88000A0053746F7070696E67206D6F746F729F
:101A9800732E2E2E004D6F76696E6720466F727713
:101AA800617264004D6F76696E67204261636B777F
:101AB800617264005475726E696E67204C65667455
:101AC800005475726E696E672052696768740050B9
:101AD8006572666F726D696E6720552D5475726EEA
:101AE8000053746F7070696E67204D6F746F7273F6
:101AF80000536574757020636F6D706C6574652E26
:101B0800205374617274696E67206C6F6F702E2E2B
:101B18002E0053797374656D206973206F70657238
:101B28006174696F6E616C20616E64206C6F6F7098
:101B3800696E672E2E2E004144432056616C7565F0
:101B48003A20004572726F723A204563686F2070C0
:101B5800756C7365206E6F74207265636569766550
:101B68006421004572726F723A2044697374616E21
:101B78006365206D6561737572656D656E74206649
:101B880061696C65642120436F6E74696E75696E56
:101B9800672E2E2E0044697374616E63653A2000C7
:101BA80048616E646C696E67206F62737461636C00
:101BB800652E2E2E004F62737461636C6520646518
:101BC800746563746564212053746F7070696E67FF
:101BD800206D6F746F72732E004D6F746F72732067
:101BE80073746F7070656420616674657220552D1A
:101BF8007475726E2E0049646C653A204E6F206DC4
:101C08006F76656D656E7420636F6D6D616E6420AF
:101C1800676976656E2E004D6F746F7273206172FE
:101C2800652063757272656E746C792073746F7059
:061C38007065642E00003F
:00000001FF
